:030000000203FFF9
:0C03FF00787FE4F6D8FD758152020446B8
:100630001832020204040606080801020304050633
:100640000708000000000000000008220808080851
:1006500008080808084B40404040404040400130F6
:1006600008012FFF012E00012D00C1820121000190
:060670004A00022A00000E
:10000E00E54A6003020207754A01120A1BC3E52E78
:10001E009403748094804003020207E52D1470034C
:10002E000200D414700302011D240260030201F8C1
:10003E0012048BE5186411705B120906500302025C
:10004E00071208C45016120972120A41E4F52E75F1
:10005E002D02F52F1209A29009F8802912071C50C3
:10006E002B120972120A41E4F52EAF2FEF3395E0F1
:10007E00FEEFF47002EEF47003020207752D01120A
:10008E0009A29009FAE4934480F50922120972D26A
:10009E0000052E22E51864217003120A0DE517647F
:1000AE00417010052CC3E52C946474809480400339
:1000BE00120972E52C70030201F8E51760030201C4
:1000CE00F8F52C0201F812048BE518642170031266
:1000DE000A0DE51764417010052CC3E52C94647469
:1000EE008094804003120972E52C6006E5177002B9
:1000FE00F52CE518641160030201F812090650038D
:10010E000202071208807B007A00794B0201E03070
:10011E00023AAF187E00EF64287014AD2FED3395C0
:10012E00E0FCED64034C6004052F8003E4F52FEF33
:10013E0064184E60030201EDAF2FEF3395E04F6070
:10014E0005152F0201ED752F030201ED12048BE54B
:10015E001864217003120A0DE5176414701DAF2F79
:10016E00EF3395E0FEEF64034E6010052CC3E52CD3
:10017E0094647480948040031208A2E51764417061
:10018E0010052CC3E52C94647480948040031209EE
:10019E0072E52C6006E5177002F52CE518641170F7
:1001AE003E1209064053AF2FEF3395E0FEEF640386
:1001BE004E70101209227B007A00794B7515087D5E
:1001CE00188019120880E52F75F008A42432F9E47E
:1001DE00FAFBE52F75F008A4FD7515080206D3E5A8
:1001EE001864127005120972B202E5186481700962
:0A01FE00120972E4F52D752FFF229F
:10020800E5216003020365752101E52EC39403749B
:100218008094804018E4FFEFC39408748094804071
:100228000302036574092FF8E4F60F80EAE52D143C
:1002380060391470030202EC24026003020365E4CF
:10024800FFEFC39408748094804003020365744BE5
:100258002FF8E6FE64406008EE9009EE93FE8002F7
:100268007E4074092FF8A6060F80D6E552644070C8
:10027800219009FA934480F509E52FFD3395E0FCB8
:1002880074EE2DF58274093CF583E4934480F50AF5
:100298008026E54B64406009E54B9009EE93FE80AB
:1002A800027E808E09E54C64406009E54C9009EEB9
:1002B80093FE80027E808E0A7F02EFC394087480CA
:1002C80094804003020365744B2FF8E6FE64406097
:1002D80008EE9009EE93FE80027E8074092FF8A63E
:1002E800060F80D630024D9009F8E493FE4480F55D
:1002F80009750A40750B40750C40750D40750E4028
:10030800AD2FED3395E0FCC3ED9403EC648094804D
:1003180050189009FAE493F50FED3395E0FC74EE6C
:100328002DF58274093CF58380058E0F9009FBE456
:1003380093F51022E4FFEFC3940874809480501D55
:10034800744B2FF8E6FE64406008EE9009EE93FEC9
:0D03580080027E8074092FF8A6060F80D960
:010365002275
:10079A00A203B35011C3E52E9403748094804006DB
:1007AA00D2A5D203801230030FC3E52E94037480BE
:1007BA0094805004C2A5C203300008A2A5B3500316
:0C07CA00D2A52220000530A502C2A52205
:10095900C2A512075C1209CA12093E120A4C1202F8
:090969000812000E12079A80F535
:03000B0002036687
:10036600C0E0C0F0C083C082C0D075D000C000C05D
:1003760001C002C003C004C005C006C007120A556A
:1003860012085C0521C3E5219432748094804003F1
:10039600752100054AC3E54A940A74809480400397
:1003A600754A00C3E52E9403748094804019052B8A
:1003B600E52B7002052A9488E52A94134009752ACC
:1003C60000752B00752E003000120531C3E53194FF
:1003D6004B748094804005753100C200D201D0076D
:1003E600D006D005D004D003D002D001D000D0D0A2
:0903F600D082D083D0F0D0E032B7
:1005740020041FAF30EFC3940874809480500F742C
:100584004B2FF8E6FE744A2FF8A6060F80E7755243
:100594004022E530701F7F07EFD39400748094806D
:1005A400400F744A2FF8E6FE744B2FF8A6061F80FE
:1005B400E7754B40227F06EFC39530400F744B2FF5
:1005C400F8E6FE744C2FF8A6061F80EB744C2FF847
:0205D40076406F
:0105D6002202
:1009B800AD07E54B64407009C20412057415308D0B
:0209C8005222B9
:0E0A0D00E55264406007D204120574053022E1
:10097200E4FFEFC39408748094805009744B2FF8FD
:0809820076400F80ED7530088E
:01098A00224A
:10090600E4FFEFC3940874809480500E744B2FF864
:0B091600E664407002D3220F80E8C3AB
:0109210022B3
:10071C00E4FFEFC39403748094805032E4FEEEFD4A
:10072C007C00C39408748094805016EF75F008A474
:10073C0024322EF8E6FB744B2EF8E6B503030E803C
:0F074C00DDED64084C70048F2FD3220F80C4C3DF
:01075B00227B
:1008C400E4FFEFC3940874809480501374222FF8CB
:1008D400E6FE744B2FF8E66E6002C3220F80E3D36A
:0108E40022F1
:10092200E4FFEFC3940874809480500F744B2FF847
:0B093200E6FE74222FF8A6060F80E7F7
:01093D002297
:10088000E4FFEFC39408748094805015744B2FF8E4
:10089000E6FEE52F75F008A424322FF8A6060F8097
:0108A000E176
:0108A1002234
:10075C00E4F511C3E511940374809480501DE511E8
:10076C0075F008A42432F9E4FAFBE51175F008A43D
:10077C00FD7516081205D7051180D87B007A007913
:0E078C0022E51175F008A4FD7516080205D7C8
:1008A200E4FFEFC39408748094805015E52F75F02F
:1008B20008A424322FF8E6FE744B2FF8A6060F8008
:0108C200E154
:0108C3002212
:10048B00AF18EF64186005EF64147005E4FF1209F0
:10049B00B8E518642870057F011209B8E5186424C3
:1004AB0070057F021209B8E518642270057F0312EC
:1004BB0009B8E518644870057F041209B8E518649B
:1004CB004470057F051209B8E518644270057F0674
:1004DB001209B8E518648870057F071209B8E5188A
:1004EB00648470057F081209B8E518648270057F73
:0504FB00091209B822FE
:1009CA005389F0758AC0758CE0C28DD28CD2A9D2B7
:0209DA00AF224A
:070A5500758AC0758CE022D8
:040A2900D2A17F05D2
:080A2D0000AE071FEE70F92274
:0F09FE00D2A0120A29C2A07F05120A2DC2A1227F
:0C0A3500C2A0120A29D2A07F05020A2DDF
:0207D600AD076D
:1007D800E4FCECC39408748094805024C2A17F0583
:1007E800120A2DED30E704D2A08002C2A07F0512C4
:1007F8000A2DD2A1ED25E0FD7F05120A2D0C80D22D
:02080800C2A18B
:01080A0022CB
:10083600E4FCECC39408748094805017120A29EDE6
:1008460025E0FD30A003430501C2A17F05120A2D54
:050856000C80DFAF057E
:01085B00227A
:1009DC00120A29A2A0E433FDC2A17F05120A2DAF91
:0109EC000505
:0109ED0022E7
:10098B00C2A1A20492A07F05120A2D120A29C2A1AC
:07099B00D2A07F05020A2D26
:10093E0053877F75985053890F438920758BFD75AA
:0B094E008DFDC2ABD28ED2AFD2AC2226
:1009EE003F065B4F666D7D077F6F777C395E797151
:0306760001080771
:10085C00E4F580C37407950825E025E0FFE5A05476
:10086C00E34FF5A074092508F8E6F580E508145463
:03087C0007F50875
:01087F002256
:1009A200E4FFEFC3940874809480500974092FF80F
:0509B200E4F60F80EDEA
:0109B700221D
:060679000118000117004A
:100684007FFFD294D295D296D297C290C291C29251
:10069400C2932097027F702096027FB02095027F3C
:1006A400D02094027FE0D290D291D292D293C2947D
:1006B400C295C296C297209303430707209203432F
:0E06C400070B20910343070D20900343070E00
:0106D2002205
:0D0A1B00120684EFF4FF65175FF5188F17C2
:010A280022AB
:0800030000AE071FEE70F922A8
:1006D3008B118A1289138D14C2A91209FE7FA012ED
:1006E30007D61209DCAF141207D61209DCAF1515B1
:1006F30015EF601FAB110513E513AA127002051263
:1007030014F912080BFF1207D61209DC7FC8120076
:090713000380DA120A35D2A92292
:1005D7008B128A1389148D15C2A91209FE7FA012E6
:1005E70007D61209DCAF151207D61209DC1209FE6D
:1005F7007FA11207D61209DCAF161516EF60241279
:100607000836AB120514E514AA137002051314F982
:10061700EF120824E5166004C2048002D20412090E
:090627008B80D5120A35D2A922FC
:04067F00021900005C
:090A4C00C290C291C292C2932231
:10050000EF64014E701A051AE51A70020519C394BA
:1005100004E51964809480401EE4F519F51A8017EB
:10052000E51A151A70021519C3E5196480948050F4
:1005300006751900751A03E5197031E51A14601073
:1005400014601714601E24037022D290C29180049C
:10055000C290D291C292C2938012C290C291D292A2
:10056000C2938008C290C291C292D293200104C269
:030570000180F90E
:010573002265
:0408E500AB07AA06AD
:1008E900900000C3E5829BEA6480F8E58364809800
:0C08F900500AAF05AE04120500A380E712
:0109050022CF
:0B0A41007D017C007F007E020208E5C2
:10040B00020959E493A3F8E493A34003F68001F2A5
:10041B0008DFF48029E493A3F85407240CC8C333F2
:10042B00C4540F4420C8834004F456800146F6DFC1
:10043B00E4800B0102040810204080900630E47E1B
:10044B00019360BCA3FF543F30E509541FFEE493B6
:10045B00A360010ECF54C025E060A840B8E493A37D
:10046B00FAE493A3F8E493A3C8C582C8CAC583CAA8
:10047B00F0A3C8C582C8CAC583CADFE9DEE780BE60
:010683000076
:10080B00BB010689828A83E0225002E722BBFE02EB
:09081B00E32289828A83E493221E
:10082400BB010689828A83F0225002F722BBFE01B3
:02083400F322AD
:00000001FF
